{
  "address": "0x47EC596C581D9354dbCb0E2C00aBe298b51EB32A",
  "abi": [
    {
      "inputs": [
        {
          "internalType": "string",
          "name": "name",
          "type": "string"
        },
        {
          "internalType": "string",
          "name": "symbol",
          "type": "string"
        },
        {
          "internalType": "address[]",
          "name": "payees",
          "type": "address[]"
        },
        {
          "internalType": "uint256[]",
          "name": "shares",
          "type": "uint256[]"
        },
        {
          "internalType": "uint16",
          "name": "maxSupply",
          "type": "uint16"
        },
        {
          "internalType": "uint8",
          "name": "publicMintStage",
          "type": "uint8"
        },
        {
          "components": [
            {
              "internalType": "uint8",
              "name": "stageId",
              "type": "uint8"
            },
            {
              "internalType": "uint16",
              "name": "maxSupply",
              "type": "uint16"
            },
            {
              "internalType": "uint32",
              "name": "startTime",
              "type": "uint32"
            },
            {
              "internalType": "uint32",
              "name": "endTime",
              "type": "uint32"
            },
            {
              "internalType": "uint160",
              "name": "mintPrice",
              "type": "uint160"
            }
          ],
          "internalType": "struct TemplateNFT.StageInfo",
          "name": "_initStageInfo",
          "type": "tuple"
        },
        {
          "internalType": "string",
          "name": "_initBaseURI",
          "type": "string"
        }
      ],
      "stateMutability": "nonpayable",
      "type": "constructor"
    },
    {
      "anonymous": false,
      "inputs": [
        {
          "indexed": true,
          "internalType": "address",
          "name": "owner",
          "type": "address"
        },
        {
          "indexed": true,
          "internalType": "address",
          "name": "approved",
          "type": "address"
        },
        {
          "indexed": true,
          "internalType": "uint256",
          "name": "tokenId",
          "type": "uint256"
        }
      ],
      "name": "Approval",
      "type": "event"
    },
    {
      "anonymous": false,
      "inputs": [
        {
          "indexed": true,
          "internalType": "address",
          "name": "owner",
          "type": "address"
        },
        {
          "indexed": true,
          "internalType": "address",
          "name": "operator",
          "type": "address"
        },
        {
          "indexed": false,
          "internalType": "bool",
          "name": "approved",
          "type": "bool"
        }
      ],
      "name": "ApprovalForAll",
      "type": "event"
    },
    {
      "anonymous": false,
      "inputs": [
        {
          "indexed": true,
          "internalType": "contract IERC20",
          "name": "token",
          "type": "address"
        },
        {
          "indexed": false,
          "internalType": "address",
          "name": "to",
          "type": "address"
        },
        {
          "indexed": false,
          "internalType": "uint256",
          "name": "amount",
          "type": "uint256"
        }
      ],
      "name": "ERC20PaymentReleased",
      "type": "event"
    },
    {
      "anonymous": false,
      "inputs": [
        {
          "indexed": true,
          "internalType": "address",
          "name": "previousOwner",
          "type": "address"
        },
        {
          "indexed": true,
          "internalType": "address",
          "name": "newOwner",
          "type": "address"
        }
      ],
      "name": "OwnershipTransferred",
      "type": "event"
    },
    {
      "anonymous": false,
      "inputs": [
        {
          "indexed": false,
          "internalType": "address",
          "name": "account",
          "type": "address"
        },
        {
          "indexed": false,
          "internalType": "uint256",
          "name": "shares",
          "type": "uint256"
        }
      ],
      "name": "PayeeAdded",
      "type": "event"
    },
    {
      "anonymous": false,
      "inputs": [
        {
          "indexed": false,
          "internalType": "address",
          "name": "from",
          "type": "address"
        },
        {
          "indexed": false,
          "internalType": "uint256",
          "name": "amount",
          "type": "uint256"
        }
      ],
      "name": "PaymentReceived",
      "type": "event"
    },
    {
      "anonymous": false,
      "inputs": [
        {
          "indexed": false,
          "internalType": "address",
          "name": "to",
          "type": "address"
        },
        {
          "indexed": false,
          "internalType": "uint256",
          "name": "amount",
          "type": "uint256"
        }
      ],
      "name": "PaymentReleased",
      "type": "event"
    },
    {
      "anonymous": false,
      "inputs": [
        {
          "indexed": true,
          "internalType": "address",
          "name": "from",
          "type": "address"
        },
        {
          "indexed": true,
          "internalType": "address",
          "name": "to",
          "type": "address"
        },
        {
          "indexed": true,
          "internalType": "uint256",
          "name": "tokenId",
          "type": "uint256"
        }
      ],
      "name": "Transfer",
      "type": "event"
    },
    {
      "inputs": [
        {
          "internalType": "address",
          "name": "to",
          "type": "address"
        },
        {
          "internalType": "uint256",
          "name": "tokenId",
          "type": "uint256"
        }
      ],
      "name": "approve",
      "outputs": [],
      "stateMutability": "nonpayable",
      "type": "function"
    },
    {
      "inputs": [
        {
          "internalType": "address",
          "name": "owner",
          "type": "address"
        }
      ],
      "name": "balanceOf",
      "outputs": [
        {
          "internalType": "uint256",
          "name": "",
          "type": "uint256"
        }
      ],
      "stateMutability": "view",
      "type": "function"
    },
    {
      "inputs": [
        {
          "internalType": "uint256",
          "name": "tokenId",
          "type": "uint256"
        }
      ],
      "name": "getApproved",
      "outputs": [
        {
          "internalType": "address",
          "name": "",
          "type": "address"
        }
      ],
      "stateMutability": "view",
      "type": "function"
    },
    {
      "inputs": [
        {
          "internalType": "address",
          "name": "owner",
          "type": "address"
        },
        {
          "internalType": "address",
          "name": "operator",
          "type": "address"
        }
      ],
      "name": "isApprovedForAll",
      "outputs": [
        {
          "internalType": "bool",
          "name": "",
          "type": "bool"
        }
      ],
      "stateMutability": "view",
      "type": "function"
    },
    {
      "inputs": [],
      "name": "name",
      "outputs": [
        {
          "internalType": "string",
          "name": "",
          "type": "string"
        }
      ],
      "stateMutability": "view",
      "type": "function"
    },
    {
      "inputs": [],
      "name": "nextOwnerToExplicitlySet",
      "outputs": [
        {
          "internalType": "uint256",
          "name": "",
          "type": "uint256"
        }
      ],
      "stateMutability": "view",
      "type": "function"
    },
    {
      "inputs": [
        {
          "components": [
            {
              "internalType": "uint8",
              "name": "stageId",
              "type": "uint8"
            },
            {
              "internalType": "uint16",
              "name": "maxSupply",
              "type": "uint16"
            },
            {
              "internalType": "uint32",
              "name": "startTime",
              "type": "uint32"
            },
            {
              "internalType": "uint32",
              "name": "endTime",
              "type": "uint32"
            },
            {
              "internalType": "uint160",
              "name": "mintPrice",
              "type": "uint160"
            }
          ],
          "internalType": "struct TemplateNFT.StageInfo",
          "name": "_stageInfo",
          "type": "tuple"
        }
      ],
      "name": "nextStage",
      "outputs": [],
      "stateMutability": "nonpayable",
      "type": "function"
    },
    {
      "inputs": [],
      "name": "owner",
      "outputs": [
        {
          "internalType": "address",
          "name": "",
          "type": "address"
        }
      ],
      "stateMutability": "view",
      "type": "function"
    },
    {
      "inputs": [
        {
          "internalType": "uint256",
          "name": "tokenId",
          "type": "uint256"
        }
      ],
      "name": "ownerOf",
      "outputs": [
        {
          "internalType": "address",
          "name": "",
          "type": "address"
        }
      ],
      "stateMutability": "view",
      "type": "function"
    },
    {
      "inputs": [
        {
          "internalType": "uint256",
          "name": "index",
          "type": "uint256"
        }
      ],
      "name": "payee",
      "outputs": [
        {
          "internalType": "address",
          "name": "",
          "type": "address"
        }
      ],
      "stateMutability": "view",
      "type": "function"
    },
    {
      "inputs": [
        {
          "internalType": "uint8",
          "name": "amount",
          "type": "uint8"
        }
      ],
      "name": "publicMint",
      "outputs": [],
      "stateMutability": "payable",
      "type": "function"
    },
    {
      "inputs": [
        {
          "internalType": "address payable",
          "name": "account",
          "type": "address"
        }
      ],
      "name": "release",
      "outputs": [],
      "stateMutability": "nonpayable",
      "type": "function"
    },
    {
      "inputs": [
        {
          "internalType": "contract IERC20",
          "name": "token",
          "type": "address"
        },
        {
          "internalType": "address",
          "name": "account",
          "type": "address"
        }
      ],
      "name": "release",
      "outputs": [],
      "stateMutability": "nonpayable",
      "type": "function"
    },
    {
      "inputs": [
        {
          "internalType": "contract IERC20",
          "name": "token",
          "type": "address"
        },
        {
          "internalType": "address",
          "name": "account",
          "type": "address"
        }
      ],
      "name": "released",
      "outputs": [
        {
          "internalType": "uint256",
          "name": "",
          "type": "uint256"
        }
      ],
      "stateMutability": "view",
      "type": "function"
    },
    {
      "inputs": [
        {
          "internalType": "address",
          "name": "account",
          "type": "address"
        }
      ],
      "name": "released",
      "outputs": [
        {
          "internalType": "uint256",
          "name": "",
          "type": "uint256"
        }
      ],
      "stateMutability": "view",
      "type": "function"
    },
    {
      "inputs": [],
      "name": "renounceOwnership",
      "outputs": [],
      "stateMutability": "nonpayable",
      "type": "function"
    },
    {
      "inputs": [
        {
          "internalType": "address",
          "name": "to",
          "type": "address"
        },
        {
          "internalType": "uint256",
          "name": "amount",
          "type": "uint256"
        }
      ],
      "name": "reserve",
      "outputs": [],
      "stateMutability": "nonpayable",
      "type": "function"
    },
    {
      "inputs": [
        {
          "internalType": "address",
          "name": "from",
          "type": "address"
        },
        {
          "internalType": "address",
          "name": "to",
          "type": "address"
        },
        {
          "internalType": "uint256",
          "name": "tokenId",
          "type": "uint256"
        }
      ],
      "name": "safeTransferFrom",
      "outputs": [],
      "stateMutability": "nonpayable",
      "type": "function"
    },
    {
      "inputs": [
        {
          "internalType": "address",
          "name": "from",
          "type": "address"
        },
        {
          "internalType": "address",
          "name": "to",
          "type": "address"
        },
        {
          "internalType": "uint256",
          "name": "tokenId",
          "type": "uint256"
        },
        {
          "internalType": "bytes",
          "name": "_data",
          "type": "bytes"
        }
      ],
      "name": "safeTransferFrom",
      "outputs": [],
      "stateMutability": "nonpayable",
      "type": "function"
    },
    {
      "inputs": [
        {
          "internalType": "address",
          "name": "operator",
          "type": "address"
        },
        {
          "internalType": "bool",
          "name": "approved",
          "type": "bool"
        }
      ],
      "name": "setApprovalForAll",
      "outputs": [],
      "stateMutability": "nonpayable",
      "type": "function"
    },
    {
      "inputs": [
        {
          "internalType": "string",
          "name": "baseURI",
          "type": "string"
        }
      ],
      "name": "setBaseURI",
      "outputs": [],
      "stateMutability": "nonpayable",
      "type": "function"
    },
    {
      "inputs": [
        {
          "internalType": "address",
          "name": "account",
          "type": "address"
        }
      ],
      "name": "shares",
      "outputs": [
        {
          "internalType": "uint256",
          "name": "",
          "type": "uint256"
        }
      ],
      "stateMutability": "view",
      "type": "function"
    },
    {
      "inputs": [],
      "name": "stageInfo",
      "outputs": [
        {
          "internalType": "uint8",
          "name": "stageId",
          "type": "uint8"
        },
        {
          "internalType": "uint16",
          "name": "maxSupply",
          "type": "uint16"
        },
        {
          "internalType": "uint32",
          "name": "startTime",
          "type": "uint32"
        },
        {
          "internalType": "uint32",
          "name": "endTime",
          "type": "uint32"
        },
        {
          "internalType": "uint160",
          "name": "mintPrice",
          "type": "uint160"
        }
      ],
      "stateMutability": "view",
      "type": "function"
    },
    {
      "inputs": [
        {
          "internalType": "bytes4",
          "name": "interfaceId",
          "type": "bytes4"
        }
      ],
      "name": "supportsInterface",
      "outputs": [
        {
          "internalType": "bool",
          "name": "",
          "type": "bool"
        }
      ],
      "stateMutability": "view",
      "type": "function"
    },
    {
      "inputs": [],
      "name": "symbol",
      "outputs": [
        {
          "internalType": "string",
          "name": "",
          "type": "string"
        }
      ],
      "stateMutability": "view",
      "type": "function"
    },
    {
      "inputs": [
        {
          "internalType": "uint256",
          "name": "index",
          "type": "uint256"
        }
      ],
      "name": "tokenByIndex",
      "outputs": [
        {
          "internalType": "uint256",
          "name": "",
          "type": "uint256"
        }
      ],
      "stateMutability": "view",
      "type": "function"
    },
    {
      "inputs": [
        {
          "internalType": "address",
          "name": "owner",
          "type": "address"
        },
        {
          "internalType": "uint256",
          "name": "index",
          "type": "uint256"
        }
      ],
      "name": "tokenOfOwnerByIndex",
      "outputs": [
        {
          "internalType": "uint256",
          "name": "",
          "type": "uint256"
        }
      ],
      "stateMutability": "view",
      "type": "function"
    },
    {
      "inputs": [
        {
          "internalType": "uint256",
          "name": "tokenId",
          "type": "uint256"
        }
      ],
      "name": "tokenURI",
      "outputs": [
        {
          "internalType": "string",
          "name": "",
          "type": "string"
        }
      ],
      "stateMutability": "view",
      "type": "function"
    },
    {
      "inputs": [
        {
          "internalType": "contract IERC20",
          "name": "token",
          "type": "address"
        }
      ],
      "name": "totalReleased",
      "outputs": [
        {
          "internalType": "uint256",
          "name": "",
          "type": "uint256"
        }
      ],
      "stateMutability": "view",
      "type": "function"
    },
    {
      "inputs": [],
      "name": "totalReleased",
      "outputs": [
        {
          "internalType": "uint256",
          "name": "",
          "type": "uint256"
        }
      ],
      "stateMutability": "view",
      "type": "function"
    },
    {
      "inputs": [],
      "name": "totalShares",
      "outputs": [
        {
          "internalType": "uint256",
          "name": "",
          "type": "uint256"
        }
      ],
      "stateMutability": "view",
      "type": "function"
    },
    {
      "inputs": [],
      "name": "totalSupply",
      "outputs": [
        {
          "internalType": "uint256",
          "name": "",
          "type": "uint256"
        }
      ],
      "stateMutability": "view",
      "type": "function"
    },
    {
      "inputs": [
        {
          "internalType": "address",
          "name": "from",
          "type": "address"
        },
        {
          "internalType": "address",
          "name": "to",
          "type": "address"
        },
        {
          "internalType": "uint256",
          "name": "tokenId",
          "type": "uint256"
        }
      ],
      "name": "transferFrom",
      "outputs": [],
      "stateMutability": "nonpayable",
      "type": "function"
    },
    {
      "inputs": [
        {
          "internalType": "address",
          "name": "newOwner",
          "type": "address"
        }
      ],
      "name": "transferOwnership",
      "outputs": [],
      "stateMutability": "nonpayable",
      "type": "function"
    },
    {
      "inputs": [
        {
          "components": [
            {
              "internalType": "address",
              "name": "redeemer",
              "type": "address"
            },
            {
              "internalType": "uint8",
              "name": "stageId",
              "type": "uint8"
            },
            {
              "internalType": "uint8",
              "name": "nonce",
              "type": "uint8"
            },
            {
              "internalType": "uint8",
              "name": "amount",
              "type": "uint8"
            }
          ],
          "internalType": "struct TemplateNFT.NFTVoucher",
          "name": "voucher",
          "type": "tuple"
        },
        {
          "internalType": "bytes",
          "name": "signature",
          "type": "bytes"
        },
        {
          "internalType": "uint8",
          "name": "amount",
          "type": "uint8"
        }
      ],
      "name": "whitelistMint",
      "outputs": [],
      "stateMutability": "payable",
      "type": "function"
    },
    {
      "stateMutability": "payable",
      "type": "receive"
    }
  ],
  "transactionHash": "0x74da6a02de6d6bcf94519f53a7190e2893b033fbe20c4a804772136ffc849268",
  "args": [
    "RenArt",
    "TEMP",
    [
      "0x1BE55EE7E2e7E3ff9fA745f807a9FaCf50538a4d"
    ],
    [
      1
    ],
    "10000",
    "2",
    {
      "stageId": 1,
      "maxSupply": 100,
      "startTime": 1645251767,
      "endTime": 1645510967,
      "mintPrice": "70000000000000000"
    },
    "ipfs://QmSmy9woJEuEyA57o5cbVHYkF1RLibJfpQiJNqmfEtno6f/"
  ],
  "solcInputHash": "3f09d9804ceedab968eb0194c684326f",
  "bytecode": "0x6101a06040526000805560006007553480156200001b57600080fd5b5060405162004508380380620045088339810160408190526200003e91620008c0565b6040805180820190915260018152603160f81b602082015288908787838b60056200006d565b60405180910390fd5b825162000082906001906020860190620005c4565b50815162000098906002906020850190620005c4565b5060805250620000aa90503362000384565b8051825114620001185760405162461bcd60e51b815260206004820152603260248201527f5061796d656e7453706c69747465723a2070617965657320616e6420736861726044820152710cae640d8cadccee8d040dad2e6dac2e8c6d60731b606482015260840162000064565b60008251116200016b5760405162461bcd60e51b815260206004820152601a60248201527f5061796d656e7453706c69747465723a206e6f20706179656573000000000000604482015260640162000064565b60005b8251811015620001ef57620001da8382815181106200019d57634e487b7160e01b600052603260045260246000fd5b6020026020010151838381518110620001c657634e487b7160e01b600052603260045260246000fd5b6020026020010151620003d660201b60201c565b80620001e68162000a86565b9150506200016e565b505082516020938401208251928401929092206101008390526101208190524660c0818152604080517f8b73c3c69bb8fe3d512ecc4cf759cc79239f7b179b0ffacaa9a75d522b39400f8189018190528183019790975260608181019590955260808101939093523060a0808501829052825180860382018152949093019091528251928701929092209052901b60e052506101405260f085901b6001600160f01b0319166101605260f884901b7fff0000000000000000000000000000000000000000000000000000000000000016610180528151620002d79160119190840190620005c4565b505080516010805460208401516040850151606086015160809096015160ff90951662ffffff199093169290921761010061ffff90921691909102176301000000600160581b031916630100000063ffffffff9283160263ffffffff60381b191617670100000000000000919094160292909217600160581b600160f81b0319166b0100000000000000000000006001600160a01b03909216919091021790555062000ae9945050505050565b600880546001600160a01b038381166001600160a01b0319831681179093556040519116919082907f8be0079c531659141344cd1fd0a4f28419497f9722a3daafe3b4186f6b6457e090600090a35050565b6001600160a01b038216620004435760405162461bcd60e51b815260206004820152602c60248201527f5061796d656e7453706c69747465723a206163636f756e74206973207468652060448201526b7a65726f206164647265737360a01b606482015260840162000064565b60008111620004955760405162461bcd60e51b815260206004820152601d60248201527f5061796d656e7453706c69747465723a20736861726573206172652030000000604482015260640162000064565b6001600160a01b0382166000908152600b602052604090205415620005115760405162461bcd60e51b815260206004820152602b60248201527f5061796d656e7453706c69747465723a206163636f756e7420616c726561647960448201526a206861732073686172657360a81b606482015260840162000064565b600d8054600181019091557fd7b6990105719101dabeb77144f2a3385c8033acd3af97e9423a695e81ad1eb50180546001600160a01b0319166001600160a01b0384169081179091556000908152600b602052604090208190556009546200057b90829062000a2e565b600955604080516001600160a01b0384168152602081018390527f40c340f65e17194d14ddddb073d3c9f888e3cb52b5aae0c6c7706b4fbc905fac910160405180910390a15050565b828054620005d29062000a49565b90600052602060002090601f016020900481019282620005f6576000855562000641565b82601f106200061157805160ff191683800117855562000641565b8280016001018555821562000641579182015b828111156200064157825182559160200191906001019062000624565b506200064f92915062000653565b5090565b5b808211156200064f576000815560010162000654565b600082601f8301126200067b578081fd5b81516020620006946200068e8362000a08565b620009d5565b80838252828201915082860187848660051b8901011115620006b4578586fd5b855b85811015620006df578151620006cc8162000ad0565b84529284019290840190600101620006b6565b5090979650505050505050565b600082601f830112620006fd578081fd5b81516020620007106200068e8362000a08565b80838252828201915082860187848660051b890101111562000730578586fd5b855b85811015620006df5781518452928401929084019060010162000732565b600082601f83011262000761578081fd5b81516001600160401b038111156200077d576200077d62000aba565b602062000793601f8301601f19168201620009d5565b8281528582848701011115620007a7578384fd5b835b83811015620007c6578581018301518282018401528201620007a9565b83811115620007d757848385840101525b5095945050505050565b600060a08284031215620007f3578081fd5b60405160a081016001600160401b038111828210171562000818576200081862000aba565b6040529050806200082983620008ae565b8152620008396020840162000881565b60208201526200084c6040840162000899565b60408201526200085f6060840162000899565b60608201526080830151620008748162000ad0565b6080919091015292915050565b805161ffff811681146200089457600080fd5b919050565b805163ffffffff811681146200089457600080fd5b805160ff811681146200089457600080fd5b600080600080600080600080610180898b031215620008dd578384fd5b88516001600160401b0380821115620008f4578586fd5b620009028c838d0162000750565b995060208b015191508082111562000918578586fd5b620009268c838d0162000750565b985060408b01519150808211156200093c578586fd5b6200094a8c838d016200066a565b975060608b015191508082111562000960578586fd5b6200096e8c838d01620006ec565b96506200097e60808c0162000881565b95506200098e60a08c01620008ae565b94506200099f8c60c08d01620007e1565b93506101608b0151915080821115620009b6578283fd5b50620009c58b828c0162000750565b9150509295985092959890939650565b604051601f8201601f191681016001600160401b038111828210171562000a005762000a0062000aba565b604052919050565b60006001600160401b0382111562000a245762000a2462000aba565b5060051b60200190565b6000821982111562000a445762000a4462000aa4565b500190565b600181811c9082168062000a5e57607f821691505b6020821081141562000a8057634e487b7160e01b600052602260045260246000fd5b50919050565b600060001982141562000a9d5762000a9d62000aa4565b5060010190565b634e487b7160e01b600052601160045260246000fd5b634e487b7160e01b600052604160045260246000fd5b6001600160a01b038116811462000ae657600080fd5b50565b60805160a05160c05160e05160601c6101005161012051610140516101605160f01c6101805160f81c61398262000b8660003960008181611069015261148d0152600081816111840152818161141501526116de01526000612b0201526000612b5101526000612b2c01526000612a8501526000612aaf01526000612ad90152600081816121230152818161214d01526127d901526139826000f3fe6080604052600436106102085760003560e01c8063715018a611610118578063c87b56dd116100a0578063d79779b21161006f578063d79779b2146106d0578063e33b7de314610706578063e985e9c51461071b578063ee83f9e214610764578063f2fde38b1461077757600080fd5b8063c87b56dd14610644578063cc47a40b14610664578063ce7c2ac214610684578063d7224ba0146106ba57600080fd5b806395d89b41116100e757806395d89b41146105995780639852595c146105ae578063a22cb465146105e4578063ad1191fa14610604578063b88d4fde1461062457600080fd5b8063715018a614610533578063858e83b5146105485780638b83209b1461055b5780638da5cb5b1461057b57600080fd5b80632f745c591161019b57806348b750441161016a57806348b75044146104935780634f6ccce7146104b357806355f804b3146104d35780636352211e146104f357806370a082311461051357600080fd5b80632f745c59146103f85780633a98ef3914610418578063406072a91461042d57806342842e0e1461047357600080fd5b806318160ddd116101d757806318160ddd14610307578063191655871461032657806323b872dd146103465780632bf871161461036657600080fd5b806301ffc9a71461025657806306fdde031461028b578063081812fc146102ad578063095ea7b3146102e557600080fd5b36610251577f6ef95f06320e7a25a04a175ca677b7052bdd97131872c2192525a629f51be77033604080516001600160a01b0390921682523460208301520160405180910390a1005b600080fd5b34801561026257600080fd5b50610276610271366004613342565b610797565b60405190151581526020015b60405180910390f35b34801561029757600080fd5b506102a0610804565b60405161028291906135fd565b3480156102b957600080fd5b506102cd6102c83660046134ff565b610896565b6040516001600160a01b039091168152602001610282565b3480156102f157600080fd5b506103056103003660046132fb565b610926565b005b34801561031357600080fd5b506000545b604051908152602001610282565b34801561033257600080fd5b506103056103413660046131bd565b610a3e565b34801561035257600080fd5b50610305610361366004613211565b610b6c565b34801561037257600080fd5b506010546103b79060ff81169061ffff6101008204169063ffffffff63010000008204811691600160381b8104909116906001600160a01b03600160581b9091041685565b6040805160ff909616865261ffff909416602086015263ffffffff928316938501939093521660608301526001600160a01b0316608082015260a001610282565b34801561040457600080fd5b506103186104133660046132fb565b610b77565b34801561042457600080fd5b50600954610318565b34801561043957600080fd5b5061031861044836600461337a565b6001600160a01b039182166000908152600f6020908152604080832093909416825291909152205490565b34801561047f57600080fd5b5061030561048e366004613211565b610ce5565b34801561049f57600080fd5b506103056104ae36600461337a565b610d00565b3480156104bf57600080fd5b506103186104ce3660046134ff565b610ee8565b3480156104df57600080fd5b506103056104ee36600461338c565b610f4a565b3480156104ff57600080fd5b506102cd61050e3660046134ff565b610f8b565b34801561051f57600080fd5b5061031861052e3660046131bd565b610f9d565b34801561053f57600080fd5b5061030561102e565b61030561055636600461352f565b611064565b34801561056757600080fd5b506102cd6105763660046134ff565b61127d565b34801561058757600080fd5b506008546001600160a01b03166102cd565b3480156105a557600080fd5b506102a06112bb565b3480156105ba57600080fd5b506103186105c93660046131bd565b6001600160a01b03166000908152600c602052604090205490565b3480156105f057600080fd5b506103056105ff3660046132ce565b6112ca565b34801561061057600080fd5b5061030561061f366004613468565b61138f565b34801561063057600080fd5b5061030561063f366004613251565b6115ac565b34801561065057600080fd5b506102a061065f3660046134ff565b6115e5565b34801561067057600080fd5b5061030561067f3660046132fb565b6116b2565b34801561069057600080fd5b5061031861069f3660046131bd565b6001600160a01b03166000908152600b602052604090205490565b3480156106c657600080fd5b5061031860075481565b3480156106dc57600080fd5b506103186106eb3660046131bd565b6001600160a01b03166000908152600e602052604090205490565b34801561071257600080fd5b50600a54610318565b34801561072757600080fd5b506102766107363660046131d9565b6001600160a01b03918216600090815260066020908152604080832093909416825291909152205460ff1690565b6103056107723660046133d2565b611763565b34801561078357600080fd5b506103056107923660046131bd565b611a74565b60006001600160e01b031982166380ac58cd60e01b14806107c857506001600160e01b03198216635b5e139f60e01b145b806107e357506001600160e01b0319821663780e9d6360e01b145b806107fe57506301ffc9a760e01b6001600160e01b03198316145b92915050565b60606001805461081390613867565b80601f016020809104026020016040519081016040528092919081815260200182805461083f90613867565b801561088c5780601f106108615761010080835404028352916020019161088c565b820191906000526020600020905b81548152906001019060200180831161086f57829003601f168201915b5050505050905090565b60006108a3826000541190565b61090a5760405162461bcd60e51b815260206004820152602d60248201527f455243373231413a20617070726f76656420717565727920666f72206e6f6e6560448201526c3c34b9ba32b73a103a37b5b2b760991b60648201526084015b60405180910390fd5b506000908152600560205260409020546001600160a01b031690565b600061093182610f8b565b9050806001600160a01b0316836001600160a01b031614156109a05760405162461bcd60e51b815260206004820152602260248201527f455243373231413a20617070726f76616c20746f2063757272656e74206f776e60448201526132b960f11b6064820152608401610901565b336001600160a01b03821614806109bc57506109bc8133610736565b610a2e5760405162461bcd60e51b815260206004820152603960248201527f455243373231413a20617070726f76652063616c6c6572206973206e6f74206f60448201527f776e6572206e6f7220617070726f76656420666f7220616c6c000000000000006064820152608401610901565b610a39838383611b0c565b505050565b6001600160a01b0381166000908152600b6020526040902054610a735760405162461bcd60e51b815260040161090190613610565b6000610a7e600a5490565b610a88904761374b565b90506000610ab58383610ab0866001600160a01b03166000908152600c602052604090205490565b611b68565b905080610ad45760405162461bcd60e51b815260040161090190613656565b6001600160a01b0383166000908152600c602052604081208054839290610afc90849061374b565b9250508190555080600a6000828254610b15919061374b565b90915550610b2590508382611bae565b604080516001600160a01b0385168152602081018390527fdf20fd1e76bc69d672e4814fafb2c449bba3a5369d8359adf9e05e6fde87b056910160405180910390a1505050565b610a39838383611cc7565b6000610b8283610f9d565b8210610bdb5760405162461bcd60e51b815260206004820152602260248201527f455243373231413a206f776e657220696e646578206f7574206f6620626f756e604482015261647360f01b6064820152608401610901565b600080549080805b83811015610c85576000818152600360209081526040918290208251808401909352546001600160a01b038116808452600160a01b90910467ffffffffffffffff169183019190915215610c3657805192505b876001600160a01b0316836001600160a01b03161415610c725786841415610c64575093506107fe92505050565b83610c6e816138a2565b9450505b5080610c7d816138a2565b915050610be3565b5060405162461bcd60e51b815260206004820152602e60248201527f455243373231413a20756e61626c6520746f2067657420746f6b656e206f662060448201526d0deeedccae440c4f240d2dcc8caf60931b6064820152608401610901565b610a39838383604051806020016040528060008152506115ac565b6001600160a01b0381166000908152600b6020526040902054610d355760405162461bcd60e51b815260040161090190613610565b6001600160a01b0382166000908152600e60205260408120546040516370a0823160e01b81523060048201526001600160a01b038516906370a082319060240160206040518083038186803b158015610d8d57600080fd5b505afa158015610da1573d6000803e3d6000fd5b505050506040513d601f19601f82011682018060405250810190610dc59190613517565b610dcf919061374b565b90506000610e088383610ab087876001600160a01b039182166000908152600f6020908152604080832093909416825291909152205490565b905080610e275760405162461bcd60e51b815260040161090190613656565b6001600160a01b038085166000908152600f6020908152604080832093871683529290529081208054839290610e5e90849061374b565b90915550506001600160a01b0384166000908152600e602052604081208054839290610e8b90849061374b565b90915550610e9c905084848361204f565b604080516001600160a01b038581168252602082018490528616917f3be5b7a71e84ed12875d241991c70855ac5817d847039e17a9d895c1ceb0f18a910160405180910390a250505050565b600080548210610f465760405162461bcd60e51b815260206004820152602360248201527f455243373231413a20676c6f62616c20696e646578206f7574206f6620626f756044820152626e647360e81b6064820152608401610901565b5090565b6008546001600160a01b03163314610f745760405162461bcd60e51b8152600401610901906136a1565b8051610f8790601190602084019061308d565b5050565b6000610f96826120a1565b5192915050565b60006001600160a01b0382166110095760405162461bcd60e51b815260206004820152602b60248201527f455243373231413a2062616c616e636520717565727920666f7220746865207a60448201526a65726f206164647265737360a81b6064820152608401610901565b506001600160a01b03166000908152600460205260409020546001600160801b031690565b6008546001600160a01b031633146110585760405162461bcd60e51b8152600401610901906136a1565b611062600061224b565b565b6010547f000000000000000000000000000000000000000000000000000000000000000060ff9081169116146110dc5760405162461bcd60e51b815260206004820152601760248201527f5075626c6963206d696e74206e6f7420737461727465640000000000000000006044820152606401610901565b6010546301000000900463ffffffff1642101561112e5760405162461bcd60e51b815260206004820152601060248201526f14d85b19481b9bdd081cdd185c9d195960821b6044820152606401610901565b601054600160381b900463ffffffff164211156111825760405162461bcd60e51b815260206004820152601260248201527114d85b1948185b1c9958591e48195b99195960721b6044820152606401610901565b7f000000000000000000000000000000000000000000000000000000000000000061ffff168160ff166111b460005490565b6111be919061374b565b11156112025760405162461bcd60e51b815260206004820152601360248201527245786365656420746f74616c20737570706c7960681b6044820152606401610901565b6010546112239060ff831690600160581b90046001600160a01b0316613777565b6001600160a01b031634101561126d5760405162461bcd60e51b815260206004820152600f60248201526e139bdd08195b9bdd59da08199d5b99608a1b6044820152606401610901565b61127a338260ff1661229d565b50565b6000600d82815481106112a057634e487b7160e01b600052603260045260246000fd5b6000918252602090912001546001600160a01b031692915050565b60606002805461081390613867565b6001600160a01b0382163314156113235760405162461bcd60e51b815260206004820152601a60248201527f455243373231413a20617070726f766520746f2063616c6c65720000000000006044820152606401610901565b3360008181526006602090815260408083206001600160a01b03871680855290835292819020805460ff191686151590811790915590519081529192917f17307eab39ab6107e8899845ad3d59bd9653f200f220920489ca2b5937696c31910160405180910390a35050565b6008546001600160a01b031633146113b95760405162461bcd60e51b8152600401610901906136a1565b601054815160ff918216911610156114135760405162461bcd60e51b815260206004820152601c60248201527f43616e6e6f742073657420746f2070726576696f7573207374616765000000006044820152606401610901565b7f000000000000000000000000000000000000000000000000000000000000000061ffff16816020015161ffff1611156114875760405162461bcd60e51b815260206004820152601560248201527453657420657863656564206d617820737570706c7960581b6044820152606401610901565b805160ff7f00000000000000000000000000000000000000000000000000000000000000008116911611156114fe5760405162461bcd60e51b815260206004820181905260248201527f5075626c6963206d696e742073686f756c64206265206c6173742073746167656044820152606401610901565b80516010805460208401516040850151606086015160809096015160ff90951662ffffff199093169290921761010061ffff90921691909102176affffffffffffffff0000001916630100000063ffffffff928316026affffffff00000000000000191617600160381b9190941602929092177fff0000000000000000000000000000000000000000ffffffffffffffffffffff16600160581b6001600160a01b0390921691909102179055565b6115b7848484611cc7565b6115c3848484846122b7565b6115df5760405162461bcd60e51b8152600401610901906136d6565b50505050565b60606115f2826000541190565b6116565760405162461bcd60e51b815260206004820152602f60248201527f4552433732314d657461646174613a2055524920717565727920666f72206e6f60448201526e3732bc34b9ba32b73a103a37b5b2b760891b6064820152608401610901565b60006116606123c4565b9050600081511161168057604051806020016040528060008152506116ab565b8061168a846123d3565b60405160200161169b929190613591565b6040516020818303038152906040525b9392505050565b6008546001600160a01b031633146116dc5760405162461bcd60e51b8152600401610901906136a1565b7f000000000000000000000000000000000000000000000000000000000000000061ffff168161170b60005490565b611715919061374b565b11156117595760405162461bcd60e51b815260206004820152601360248201527245786365656420746f74616c20737570706c7960681b6044820152606401610901565b610f87828261229d565b33600090815260126020526040908190208054909160ff9091169061178e906060880190880161352f565b60ff16111561183e576117a28585856124ed565b6117b2604086016020870161352f565b60105460ff9081169116146117fe5760405162461bcd60e51b81526020600482015260126024820152710a6e8c2ceca40928840dcdee840dac2e8c6d60731b6044820152606401610901565b61180e608086016060870161352f565b815461010060ff92831602911617815561182e606086016040870161352f565b815460ff191660ff919091161781555b6010546301000000900463ffffffff164210156118905760405162461bcd60e51b815260206004820152601060248201526f14d85b19481b9bdd081cdd185c9d195960821b6044820152606401610901565b601054600160381b900463ffffffff164211156118e45760405162461bcd60e51b815260206004820152601260248201527114d85b1948185b1c9958591e48195b99195960721b6044820152606401610901565b805461010090046001600160f81b031660ff8316111561193a5760405162461bcd60e51b81526020600482015260116024820152702737ba1032b737bab3b4103932b6b0b4b760791b6044820152606401610901565b60105461ffff6101009091041660ff831661195460005490565b61195e919061374b565b11156119ac5760405162461bcd60e51b815260206004820152601760248201527f457863656564207374616765206d617820737570706c790000000000000000006044820152606401610901565b6010546119cd9060ff841690600160581b90046001600160a01b0316613777565b6001600160a01b0316341015611a175760405162461bcd60e51b815260206004820152600f60248201526e139bdd08195b9bdd59da08199d5b99608a1b6044820152606401610901565b611a24338360ff1661229d565b805460ff8316908290600190611a4990849061010090046001600160f81b03166137ed565b92506101000a8154816001600160f81b0302191690836001600160f81b031602179055505050505050565b6008546001600160a01b03163314611a9e5760405162461bcd60e51b8152600401610901906136a1565b6001600160a01b038116611b035760405162461bcd60e51b815260206004820152602660248201527f4f776e61626c653a206e6577206f776e657220697320746865207a65726f206160448201526564647265737360d01b6064820152608401610901565b61127a8161224b565b60008281526005602052604080822080546001600160a01b0319166001600160a01b0387811691821790925591518593918516917f8c5be1e5ebec7d5bd14f71427d1e84f3dd0314c0f7b2291e5b200ac8c7c3b92591a4505050565b6009546001600160a01b0384166000908152600b602052604081205490918391611b9290866137a6565b611b9c9190613763565b611ba6919061380d565b949350505050565b80471015611bfe5760405162461bcd60e51b815260206004820152601d60248201527f416464726573733a20696e73756666696369656e742062616c616e63650000006044820152606401610901565b6000826001600160a01b03168260405160006040518083038185875af1925050503d8060008114611c4b576040519150601f19603f3d011682016040523d82523d6000602084013e611c50565b606091505b5050905080610a395760405162461bcd60e51b815260206004820152603a60248201527f416464726573733a20756e61626c6520746f2073656e642076616c75652c207260448201527f6563697069656e74206d617920686176652072657665727465640000000000006064820152608401610901565b6000611cd2826120a1565b80519091506000906001600160a01b0316336001600160a01b03161480611d09575033611cfe84610896565b6001600160a01b0316145b80611d1b57508151611d1b9033610736565b905080611d855760405162461bcd60e51b815260206004820152603260248201527f455243373231413a207472616e736665722063616c6c6572206973206e6f74206044820152711bdddb995c881b9bdc88185c1c1c9bdd995960721b6064820152608401610901565b846001600160a01b031682600001516001600160a01b031614611df95760405162461bcd60e51b815260206004820152602660248201527f455243373231413a207472616e736665722066726f6d20696e636f72726563746044820152651037bbb732b960d11b6064820152608401610901565b6001600160a01b038416611e5d5760405162461bcd60e51b815260206004820152602560248201527f455243373231413a207472616e7366657220746f20746865207a65726f206164604482015264647265737360d81b6064820152608401610901565b611e6d6000848460000151611b0c565b6001600160a01b0385166000908152600460205260408120805460019290611e9f9084906001600160801b03166137c5565b82546101009290920a6001600160801b038181021990931691831602179091556001600160a01b03861660009081526004602052604081208054600194509092611eeb91859116613729565b82546001600160801b039182166101009390930a9283029190920219909116179055506040805180820182526001600160a01b03808716825267ffffffffffffffff428116602080850191825260008981526003909152948520935184549151909216600160a01b026001600160e01b03199091169190921617179055611f7384600161374b565b6000818152600360205260409020549091506001600160a01b031661200557611f9d816000541190565b156120055760408051808201825284516001600160a01b03908116825260208087015167ffffffffffffffff9081168285019081526000878152600390935294909120925183549451909116600160a01b026001600160e01b03199094169116179190911790555b83856001600160a01b0316876001600160a01b03167fddf252ad1be2c89b69c2b068fc378daa952ba7f163c4a11628f55a4df523b3ef60405160405180910390a45b505050505050565b604080516001600160a01b038416602482015260448082018490528251808303909101815260649091019091526020810180516001600160e01b031663a9059cbb60e01b179052610a3990849061264a565b60408051808201909152600080825260208201526120c0826000541190565b61211f5760405162461bcd60e51b815260206004820152602a60248201527f455243373231413a206f776e657220717565727920666f72206e6f6e657869736044820152693a32b73a103a37b5b2b760b11b6064820152608401610901565b60007f00000000000000000000000000000000000000000000000000000000000000008310612180576121727f00000000000000000000000000000000000000000000000000000000000000008461380d565b61217d90600161374b565b90505b825b8181106121ea576000818152600360209081526040918290208251808401909352546001600160a01b038116808452600160a01b90910467ffffffffffffffff1691830191909152156121d757949350505050565b50806121e281613850565b915050612182565b5060405162461bcd60e51b815260206004820152602f60248201527f455243373231413a20756e61626c6520746f2064657465726d696e652074686560448201526e1037bbb732b91037b3103a37b5b2b760891b6064820152608401610901565b600880546001600160a01b038381166001600160a01b0319831681179093556040519116919082907f8be0079c531659141344cd1fd0a4f28419497f9722a3daafe3b4186f6b6457e090600090a35050565b610f8782826040518060200160405280600081525061271c565b60006001600160a01b0384163b156123b957604051630a85bd0160e11b81526001600160a01b0385169063150b7a02906122fb9033908990889088906004016135c0565b602060405180830381600087803b15801561231557600080fd5b505af1925050508015612345575060408051601f3d908101601f191682019092526123429181019061335e565b60015b61239f573d808015612373576040519150601f19603f3d011682016040523d82523d6000602084013e612378565b606091505b5080516123975760405162461bcd60e51b8152600401610901906136d6565b805181602001fd5b6001600160e01b031916630a85bd0160e11b149050611ba6565b506001949350505050565b60606011805461081390613867565b6060816123f75750506040805180820190915260018152600360fc1b602082015290565b8160005b8115612421578061240b816138a2565b915061241a9050600a83613763565b91506123fb565b60008167ffffffffffffffff81111561244a57634e487b7160e01b600052604160045260246000fd5b6040519080825280601f01601f191660200182016040528015612474576020820181803683370190505b5090505b8415611ba65761248960018361380d565b9150612496600a866138bd565b6124a190603061374b565b60f81b8183815181106124c457634e487b7160e01b600052603260045260246000fd5b60200101906001600160f81b031916908160001a9053506124e6600a86613763565b9450612478565b60006125977f09b44ab2206268ececcfda9e0748ea12c4c908fc093f73e0a04d078948eb2ead33612524604088016020890161352f565b6125346060890160408a0161352f565b61254460808a0160608b0161352f565b6040805160208101969096526001600160a01b039094169385019390935260ff9182166060850152811660808401521660a082015260c001604051602081830303815290604052805190602001206129f7565b90506125d98184848080601f016020809104026020016040519081016040528093929190818152602001838380828437600092019190915250612a4592505050565b6001600160a01b03166125f46008546001600160a01b031690565b6001600160a01b0316146115df5760405162461bcd60e51b815260206004820152601760248201527f696e76616c6964206f7220756e617574686f72697a65640000000000000000006044820152606401610901565b600061269f826040518060400160405280602081526020017f5361666545524332303a206c6f772d6c6576656c2063616c6c206661696c6564815250856001600160a01b0316612a699092919063ffffffff16565b805190915015610a3957808060200190518101906126bd9190613326565b610a395760405162461bcd60e51b815260206004820152602a60248201527f5361666545524332303a204552433230206f7065726174696f6e20646964206e6044820152691bdd081cdd58d8d9595960b21b6064820152608401610901565b6000546001600160a01b03841661277f5760405162461bcd60e51b815260206004820152602160248201527f455243373231413a206d696e7420746f20746865207a65726f206164647265736044820152607360f81b6064820152608401610901565b61278a816000541190565b156127d75760405162461bcd60e51b815260206004820152601d60248201527f455243373231413a20746f6b656e20616c7265616479206d696e7465640000006044820152606401610901565b7f00000000000000000000000000000000000000000000000000000000000000008311156128525760405162461bcd60e51b815260206004820152602260248201527f455243373231413a207175616e7469747920746f206d696e7420746f6f2068696044820152610ced60f31b6064820152608401610901565b6001600160a01b0384166000908152600460209081526040918290208251808401845290546001600160801b038082168352600160801b90910416918101919091528151808301909252805190919081906128ae908790613729565b6001600160801b031681526020018583602001516128cc9190613729565b6001600160801b039081169091526001600160a01b0380881660008181526004602090815260408083208751978301518716600160801b0297909616969096179094558451808601865291825267ffffffffffffffff4281168386019081528883526003909552948120915182549451909516600160a01b026001600160e01b031990941694909216939093179190911790915582905b858110156129ec5760405182906001600160a01b038916906000907fddf252ad1be2c89b69c2b068fc378daa952ba7f163c4a11628f55a4df523b3ef908290a46129b060008884886122b7565b6129cc5760405162461bcd60e51b8152600401610901906136d6565b816129d6816138a2565b92505080806129e4906138a2565b915050612963565b506000819055612047565b60006107fe612a04612a78565b8360405161190160f01b6020820152602281018390526042810182905260009060620160405160208183030381529060405280519060200120905092915050565b6000806000612a548585612b9f565b91509150612a6181612c0f565b509392505050565b6060611ba68484600085612e10565b6000306001600160a01b037f000000000000000000000000000000000000000000000000000000000000000016148015612ad157507f000000000000000000000000000000000000000000000000000000000000000046145b15612afb57507f000000000000000000000000000000000000000000000000000000000000000090565b50604080517f00000000000000000000000000000000000000000000000000000000000000006020808301919091527f0000000000000000000000000000000000000000000000000000000000000000828401527f000000000000000000000000000000000000000000000000000000000000000060608301524660808301523060a0808401919091528351808403909101815260c0909201909252805191012090565b600080825160411415612bd65760208301516040840151606085015160001a612bca87828585612f38565b94509450505050612c08565b825160401415612c005760208301516040840151612bf5868383613025565b935093505050612c08565b506000905060025b9250929050565b6000816004811115612c3157634e487b7160e01b600052602160045260246000fd5b1415612c3a5750565b6001816004811115612c5c57634e487b7160e01b600052602160045260246000fd5b1415612caa5760405162461bcd60e51b815260206004820152601860248201527f45434453413a20696e76616c6964207369676e617475726500000000000000006044820152606401610901565b6002816004811115612ccc57634e487b7160e01b600052602160045260246000fd5b1415612d1a5760405162461bcd60e51b815260206004820152601f60248201527f45434453413a20696e76616c6964207369676e6174757265206c656e677468006044820152606401610901565b6003816004811115612d3c57634e487b7160e01b600052602160045260246000fd5b1415612d955760405162461bcd60e51b815260206004820152602260248201527f45434453413a20696e76616c6964207369676e6174757265202773272076616c604482015261756560f01b6064820152608401610901565b6004816004811115612db757634e487b7160e01b600052602160045260246000fd5b141561127a5760405162461bcd60e51b815260206004820152602260248201527f45434453413a20696e76616c6964207369676e6174757265202776272076616c604482015261756560f01b6064820152608401610901565b606082471015612e715760405162461bcd60e51b815260206004820152602660248201527f416464726573733a20696e73756666696369656e742062616c616e636520666f6044820152651c8818d85b1b60d21b6064820152608401610901565b843b612ebf5760405162461bcd60e51b815260206004820152601d60248201527f416464726573733a2063616c6c20746f206e6f6e2d636f6e74726163740000006044820152606401610901565b600080866001600160a01b03168587604051612edb9190613575565b60006040518083038185875af1925050503d8060008114612f18576040519150601f19603f3d011682016040523d82523d6000602084013e612f1d565b606091505b5091509150612f2d828286613054565b979650505050505050565b6000807f7fffffffffffffffffffffffffffffff5d576e7357a4501ddfe92f46681b20a0831115612f6f575060009050600361301c565b8460ff16601b14158015612f8757508460ff16601c14155b15612f98575060009050600461301c565b6040805160008082526020820180845289905260ff881692820192909252606081018690526080810185905260019060a0016020604051602081039080840390855afa158015612fec573d6000803e3d6000fd5b5050604051601f1901519150506001600160a01b0381166130155760006001925092505061301c565b9150600090505b94509492505050565b6000806001600160ff1b03831660ff84901c601b0161304687828885612f38565b935093505050935093915050565b606083156130635750816116ab565b8251156130735782518084602001fd5b8160405162461bcd60e51b815260040161090191906135fd565b82805461309990613867565b90600052602060002090601f0160209004810192826130bb5760008555613101565b82601f106130d457805160ff1916838001178555613101565b82800160010185558215613101579182015b828111156131015782518255916020019190600101906130e6565b50610f469291505b80821115610f465760008155600101613109565b600067ffffffffffffffff80841115613138576131386138fd565b604051601f8501601f19908116603f01168101908282118183101715613160576131606138fd565b8160405280935085815286868601111561317957600080fd5b858560208301376000602087830101525050509392505050565b803563ffffffff811681146131a757600080fd5b919050565b803560ff811681146131a757600080fd5b6000602082840312156131ce578081fd5b81356116ab81613913565b600080604083850312156131eb578081fd5b82356131f681613913565b9150602083013561320681613913565b809150509250929050565b600080600060608486031215613225578081fd5b833561323081613913565b9250602084013561324081613913565b929592945050506040919091013590565b60008060008060808587031215613266578081fd5b843561327181613913565b9350602085013561328181613913565b925060408501359150606085013567ffffffffffffffff8111156132a3578182fd5b8501601f810187136132b3578182fd5b6132c28782356020840161311d565b91505092959194509250565b600080604083850312156132e0578182fd5b82356132eb81613913565b9150602083013561320681613928565b6000806040838503121561330d578081fd5b823561331881613913565b946020939093013593505050565b600060208284031215613337578081fd5b81516116ab81613928565b600060208284031215613353578081fd5b81356116ab81613936565b60006020828403121561336f578081fd5b81516116ab81613936565b600080604083850312156131eb578182fd5b60006020828403121561339d578081fd5b813567ffffffffffffffff8111156133b3578182fd5b8201601f810184136133c3578182fd5b611ba68482356020840161311d565b60008060008084860360c08112156133e8578283fd5b60808112156133f5578283fd5b50849350608085013567ffffffffffffffff80821115613413578384fd5b818701915087601f830112613426578384fd5b813581811115613434578485fd5b886020828501011115613445578485fd5b60208301955080945050505061345d60a086016131ac565b905092959194509250565b600060a08284031215613479578081fd5b60405160a0810181811067ffffffffffffffff8211171561349c5761349c6138fd565b6040526134a8836131ac565b8152602083013561ffff811681146134be578283fd5b60208201526134cf60408401613193565b60408201526134e060608401613193565b606082015260808301356134f381613913565b60808201529392505050565b600060208284031215613510578081fd5b5035919050565b600060208284031215613528578081fd5b5051919050565b600060208284031215613540578081fd5b6116ab826131ac565b60008151808452613561816020860160208601613824565b601f01601f19169290920160200192915050565b60008251613587818460208701613824565b9190910192915050565b600083516135a3818460208801613824565b8351908301906135b7818360208801613824565b01949350505050565b6001600160a01b03858116825284166020820152604081018390526080606082018190526000906135f390830184613549565b9695505050505050565b6020815260006116ab6020830184613549565b60208082526026908201527f5061796d656e7453706c69747465723a206163636f756e7420686173206e6f2060408201526573686172657360d01b606082015260800190565b6020808252602b908201527f5061796d656e7453706c69747465723a206163636f756e74206973206e6f742060408201526a191d59481c185e5b595b9d60aa1b606082015260800190565b6020808252818101527f4f776e61626c653a2063616c6c6572206973206e6f7420746865206f776e6572604082015260600190565b60208082526033908201527f455243373231413a207472616e7366657220746f206e6f6e204552433732315260408201527232b1b2b4bb32b91034b6b83632b6b2b73a32b960691b606082015260800190565b60006001600160801b038083168185168083038211156135b7576135b76138d1565b6000821982111561375e5761375e6138d1565b500190565b600082613772576137726138e7565b500490565b60006001600160a01b038281168482168115158284048211161561379d5761379d6138d1565b02949350505050565b60008160001904831182151516156137c0576137c06138d1565b500290565b60006001600160801b03838116908316818110156137e5576137e56138d1565b039392505050565b60006001600160f81b03838116908316818110156137e5576137e56138d1565b60008282101561381f5761381f6138d1565b500390565b60005b8381101561383f578181015183820152602001613827565b838111156115df5750506000910152565b60008161385f5761385f6138d1565b506000190190565b600181811c9082168061387b57607f821691505b6020821081141561389c57634e487b7160e01b600052602260045260246000fd5b50919050565b60006000198214156138b6576138b66138d1565b5060010190565b6000826138cc576138cc6138e7565b500690565b634e487b7160e01b600052601160045260246000fd5b634e487b7160e01b600052601260045260246000fd5b634e487b7160e01b600052604160045260246000fd5b6001600160a01b038116811461127a57600080fd5b801515811461127a57600080fd5b6001600160e01b03198116811461127a57600080fdfea26469706673582212200e5170909b2d15b17eebd643a1070fba1314314a80aa5e2540e9d41ecff52ab964736f6c63430008040033",
  "devdoc": {
    "author": "Jeffrey Lin, Justa Liang",
    "kind": "dev",
    "methods": {
      "approve(address,uint256)": {
        "details": "See {IERC721-approve}."
      },
      "balanceOf(address)": {
        "details": "See {IERC721-balanceOf}."
      },
      "constructor": {
        "details": "Setup ERC721A, EIP712 and first stage info"
      },
      "getApproved(uint256)": {
        "details": "See {IERC721-getApproved}."
      },
      "isApprovedForAll(address,address)": {
        "details": "See {IERC721-isApprovedForAll}."
      },
      "name()": {
        "details": "See {IERC721Metadata-name}."
      },
      "nextStage((uint8,uint16,uint32,uint32,uint160))": {
        "details": "Go to next stage"
      },
      "owner()": {
        "details": "Returns the address of the current owner."
      },
      "ownerOf(uint256)": {
        "details": "See {IERC721-ownerOf}."
      },
      "payee(uint256)": {
        "details": "Getter for the address of the payee number `index`."
      },
      "release(address)": {
        "details": "Triggers a transfer to `account` of the amount of Ether they are owed, according to their percentage of the total shares and their previous withdrawals."
      },
      "release(address,address)": {
        "details": "Triggers a transfer to `account` of the amount of `token` tokens they are owed, according to their percentage of the total shares and their previous withdrawals. `token` must be the address of an IERC20 contract."
      },
      "released(address)": {
        "details": "Getter for the amount of Ether already released to a payee."
      },
      "released(address,address)": {
        "details": "Getter for the amount of `token` tokens already released to a payee. `token` should be the address of an IERC20 contract."
      },
      "renounceOwnership()": {
        "details": "Leaves the contract without owner. It will not be possible to call `onlyOwner` functions anymore. Can only be called by the current owner. NOTE: Renouncing ownership will leave the contract without an owner, thereby removing any functionality that is only available to the owner."
      },
      "reserve(address,uint256)": {
        "details": "Reserve NFT"
      },
      "safeTransferFrom(address,address,uint256)": {
        "details": "See {IERC721-safeTransferFrom}."
      },
      "safeTransferFrom(address,address,uint256,bytes)": {
        "details": "See {IERC721-safeTransferFrom}."
      },
      "setApprovalForAll(address,bool)": {
        "details": "See {IERC721-setApprovalForAll}."
      },
      "setBaseURI(string)": {
        "details": "Set new baseURI"
      },
      "shares(address)": {
        "details": "Getter for the amount of shares held by an account."
      },
      "supportsInterface(bytes4)": {
        "details": "See {IERC165-supportsInterface}."
      },
      "symbol()": {
        "details": "See {IERC721Metadata-symbol}."
      },
      "tokenByIndex(uint256)": {
        "details": "See {IERC721Enumerable-tokenByIndex}."
      },
      "tokenOfOwnerByIndex(address,uint256)": {
        "details": "See {IERC721Enumerable-tokenOfOwnerByIndex}. This read function is O(totalSupply). If calling from a separate contract, be sure to test gas first. It may also degrade with extremely large collection sizes (e.g >> 10000), test for your use case."
      },
      "tokenURI(uint256)": {
        "details": "See {IERC721Metadata-tokenURI}."
      },
      "totalReleased()": {
        "details": "Getter for the total amount of Ether already released."
      },
      "totalReleased(address)": {
        "details": "Getter for the total amount of `token` already released. `token` should be the address of an IERC20 contract."
      },
      "totalShares()": {
        "details": "Getter for the total shares held by payees."
      },
      "totalSupply()": {
        "details": "See {IERC721Enumerable-totalSupply}."
      },
      "transferFrom(address,address,uint256)": {
        "details": "See {IERC721-transferFrom}."
      },
      "transferOwnership(address)": {
        "details": "Transfers ownership of the contract to a new account (`newOwner`). Can only be called by the current owner."
      }
    },
    "title": "Template NFT ",
    "version": 1
  },
  "userdoc": {
    "kind": "user",
    "methods": {
      "publicMint(uint8)": {
        "notice": "Public mint"
      },
      "whitelistMint((address,uint8,uint8,uint8),bytes,uint8)": {
        "notice": "Whitelist mint using the voucher"
      }
    },
    "version": 1
  },
  "storageLayout": {
    "storage": [
      {
        "astId": 2181,
        "contract": "contracts/TemplateNFT.sol:TemplateNFT",
        "label": "currentIndex",
        "offset": 0,
        "slot": "0",
        "type": "t_uint256"
      },
      {
        "astId": 2185,
        "contract": "contracts/TemplateNFT.sol:TemplateNFT",
        "label": "_name",
        "offset": 0,
        "slot": "1",
        "type": "t_string_storage"
      },
      {
        "astId": 2187,
        "contract": "contracts/TemplateNFT.sol:TemplateNFT",
        "label": "_symbol",
        "offset": 0,
        "slot": "2",
        "type": "t_string_storage"
      },
      {
        "astId": 2192,
        "contract": "contracts/TemplateNFT.sol:TemplateNFT",
        "label": "_ownerships",
        "offset": 0,
        "slot": "3",
        "type": "t_mapping(t_uint256,t_struct(TokenOwnership)2173_storage)"
      },
      {
        "astId": 2197,
        "contract": "contracts/TemplateNFT.sol:TemplateNFT",
        "label": "_addressData",
        "offset": 0,
        "slot": "4",
        "type": "t_mapping(t_address,t_struct(AddressData)2178_storage)"
      },
      {
        "astId": 2201,
        "contract": "contracts/TemplateNFT.sol:TemplateNFT",
        "label": "_tokenApprovals",
        "offset": 0,
        "slot": "5",
        "type": "t_mapping(t_uint256,t_address)"
      },
      {
        "astId": 2207,
        "contract": "contracts/TemplateNFT.sol:TemplateNFT",
        "label": "_operatorApprovals",
        "offset": 0,
        "slot": "6",
        "type": "t_mapping(t_address,t_mapping(t_address,t_bool))"
      },
      {
        "astId": 3137,
        "contract": "contracts/TemplateNFT.sol:TemplateNFT",
        "label": "nextOwnerToExplicitlySet",
        "offset": 0,
        "slot": "7",
        "type": "t_uint256"
      },
      {
        "astId": 7,
        "contract": "contracts/TemplateNFT.sol:TemplateNFT",
        "label": "_owner",
        "offset": 0,
        "slot": "8",
        "type": "t_address"
      },
      {
        "astId": 141,
        "contract": "contracts/TemplateNFT.sol:TemplateNFT",
        "label": "_totalShares",
        "offset": 0,
        "slot": "9",
        "type": "t_uint256"
      },
      {
        "astId": 143,
        "contract": "contracts/TemplateNFT.sol:TemplateNFT",
        "label": "_totalReleased",
        "offset": 0,
        "slot": "10",
        "type": "t_uint256"
      },
      {
        "astId": 147,
        "contract": "contracts/TemplateNFT.sol:TemplateNFT",
        "label": "_shares",
        "offset": 0,
        "slot": "11",
        "type": "t_mapping(t_address,t_uint256)"
      },
      {
        "astId": 151,
        "contract": "contracts/TemplateNFT.sol:TemplateNFT",
        "label": "_released",
        "offset": 0,
        "slot": "12",
        "type": "t_mapping(t_address,t_uint256)"
      },
      {
        "astId": 154,
        "contract": "contracts/TemplateNFT.sol:TemplateNFT",
        "label": "_payees",
        "offset": 0,
        "slot": "13",
        "type": "t_array(t_address)dyn_storage"
      },
      {
        "astId": 159,
        "contract": "contracts/TemplateNFT.sol:TemplateNFT",
        "label": "_erc20TotalReleased",
        "offset": 0,
        "slot": "14",
        "type": "t_mapping(t_contract(IERC20)623,t_uint256)"
      },
      {
        "astId": 166,
        "contract": "contracts/TemplateNFT.sol:TemplateNFT",
        "label": "_erc20Released",
        "offset": 0,
        "slot": "15",
        "type": "t_mapping(t_contract(IERC20)623,t_mapping(t_address,t_uint256))"
      },
      {
        "astId": 3355,
        "contract": "contracts/TemplateNFT.sol:TemplateNFT",
        "label": "stageInfo",
        "offset": 0,
        "slot": "16",
        "type": "t_struct(StageInfo)3352_storage"
      },
      {
        "astId": 3361,
        "contract": "contracts/TemplateNFT.sol:TemplateNFT",
        "label": "_baseTokenURI",
        "offset": 0,
        "slot": "17",
        "type": "t_string_storage"
      },
      {
        "astId": 3371,
        "contract": "contracts/TemplateNFT.sol:TemplateNFT",
        "label": "_whitelistInfo",
        "offset": 0,
        "slot": "18",
        "type": "t_mapping(t_address,t_struct(MinterInfo)3366_storage)"
      }
    ],
    "types": {
      "t_address": {
        "encoding": "inplace",
        "label": "address",
        "numberOfBytes": "20"
      },
      "t_array(t_address)dyn_storage": {
        "base": "t_address",
        "encoding": "dynamic_array",
        "label": "address[]",
        "numberOfBytes": "32"
      },
      "t_bool": {
        "encoding": "inplace",
        "label": "bool",
        "numberOfBytes": "1"
      },
      "t_contract(IERC20)623": {
        "encoding": "inplace",
        "label": "contract IERC20",
        "numberOfBytes": "20"
      },
      "t_mapping(t_address,t_bool)": {
        "encoding": "mapping",
        "key": "t_address",
        "label": "mapping(address => bool)",
        "numberOfBytes": "32",
        "value": "t_bool"
      },
      "t_mapping(t_address,t_mapping(t_address,t_bool))": {
        "encoding": "mapping",
        "key": "t_address",
        "label": "mapping(address => mapping(address => bool))",
        "numberOfBytes": "32",
        "value": "t_mapping(t_address,t_bool)"
      },
      "t_mapping(t_address,t_struct(AddressData)2178_storage)": {
        "encoding": "mapping",
        "key": "t_address",
        "label": "mapping(address => struct ERC721A.AddressData)",
        "numberOfBytes": "32",
        "value": "t_struct(AddressData)2178_storage"
      },
      "t_mapping(t_address,t_struct(MinterInfo)3366_storage)": {
        "encoding": "mapping",
        "key": "t_address",
        "label": "mapping(address => struct TemplateNFT.MinterInfo)",
        "numberOfBytes": "32",
        "value": "t_struct(MinterInfo)3366_storage"
      },
      "t_mapping(t_address,t_uint256)": {
        "encoding": "mapping",
        "key": "t_address",
        "label": "mapping(address => uint256)",
        "numberOfBytes": "32",
        "value": "t_uint256"
      },
      "t_mapping(t_contract(IERC20)623,t_mapping(t_address,t_uint256))": {
        "encoding": "mapping",
        "key": "t_contract(IERC20)623",
        "label": "mapping(contract IERC20 => mapping(address => uint256))",
        "numberOfBytes": "32",
        "value": "t_mapping(t_address,t_uint256)"
      },
      "t_mapping(t_contract(IERC20)623,t_uint256)": {
        "encoding": "mapping",
        "key": "t_contract(IERC20)623",
        "label": "mapping(contract IERC20 => uint256)",
        "numberOfBytes": "32",
        "value": "t_uint256"
      },
      "t_mapping(t_uint256,t_address)": {
        "encoding": "mapping",
        "key": "t_uint256",
        "label": "mapping(uint256 => address)",
        "numberOfBytes": "32",
        "value": "t_address"
      },
      "t_mapping(t_uint256,t_struct(TokenOwnership)2173_storage)": {
        "encoding": "mapping",
        "key": "t_uint256",
        "label": "mapping(uint256 => struct ERC721A.TokenOwnership)",
        "numberOfBytes": "32",
        "value": "t_struct(TokenOwnership)2173_storage"
      },
      "t_string_storage": {
        "encoding": "bytes",
        "label": "string",
        "numberOfBytes": "32"
      },
      "t_struct(AddressData)2178_storage": {
        "encoding": "inplace",
        "label": "struct ERC721A.AddressData",
        "members": [
          {
            "astId": 2175,
            "contract": "contracts/TemplateNFT.sol:TemplateNFT",
            "label": "balance",
            "offset": 0,
            "slot": "0",
            "type": "t_uint128"
          },
          {
            "astId": 2177,
            "contract": "contracts/TemplateNFT.sol:TemplateNFT",
            "label": "numberMinted",
            "offset": 16,
            "slot": "0",
            "type": "t_uint128"
          }
        ],
        "numberOfBytes": "32"
      },
      "t_struct(MinterInfo)3366_storage": {
        "encoding": "inplace",
        "label": "struct TemplateNFT.MinterInfo",
        "members": [
          {
            "astId": 3363,
            "contract": "contracts/TemplateNFT.sol:TemplateNFT",
            "label": "nonce",
            "offset": 0,
            "slot": "0",
            "type": "t_uint8"
          },
          {
            "astId": 3365,
            "contract": "contracts/TemplateNFT.sol:TemplateNFT",
            "label": "remain",
            "offset": 1,
            "slot": "0",
            "type": "t_uint248"
          }
        ],
        "numberOfBytes": "32"
      },
      "t_struct(StageInfo)3352_storage": {
        "encoding": "inplace",
        "label": "struct TemplateNFT.StageInfo",
        "members": [
          {
            "astId": 3343,
            "contract": "contracts/TemplateNFT.sol:TemplateNFT",
            "label": "stageId",
            "offset": 0,
            "slot": "0",
            "type": "t_uint8"
          },
          {
            "astId": 3345,
            "contract": "contracts/TemplateNFT.sol:TemplateNFT",
            "label": "maxSupply",
            "offset": 1,
            "slot": "0",
            "type": "t_uint16"
          },
          {
            "astId": 3347,
            "contract": "contracts/TemplateNFT.sol:TemplateNFT",
            "label": "startTime",
            "offset": 3,
            "slot": "0",
            "type": "t_uint32"
          },
          {
            "astId": 3349,
            "contract": "contracts/TemplateNFT.sol:TemplateNFT",
            "label": "endTime",
            "offset": 7,
            "slot": "0",
            "type": "t_uint32"
          },
          {
            "astId": 3351,
            "contract": "contracts/TemplateNFT.sol:TemplateNFT",
            "label": "mintPrice",
            "offset": 11,
            "slot": "0",
            "type": "t_uint160"
          }
        ],
        "numberOfBytes": "32"
      },
      "t_struct(TokenOwnership)2173_storage": {
        "encoding": "inplace",
        "label": "struct ERC721A.TokenOwnership",
        "members": [
          {
            "astId": 2170,
            "contract": "contracts/TemplateNFT.sol:TemplateNFT",
            "label": "addr",
            "offset": 0,
            "slot": "0",
            "type": "t_address"
          },
          {
            "astId": 2172,
            "contract": "contracts/TemplateNFT.sol:TemplateNFT",
            "label": "startTimestamp",
            "offset": 20,
            "slot": "0",
            "type": "t_uint64"
          }
        ],
        "numberOfBytes": "32"
      },
      "t_uint128": {
        "encoding": "inplace",
        "label": "uint128",
        "numberOfBytes": "16"
      },
      "t_uint16": {
        "encoding": "inplace",
        "label": "uint16",
        "numberOfBytes": "2"
      },
      "t_uint160": {
        "encoding": "inplace",
        "label": "uint160",
        "numberOfBytes": "20"
      },
      "t_uint248": {
        "encoding": "inplace",
        "label": "uint248",
        "numberOfBytes": "31"
      },
      "t_uint256": {
        "encoding": "inplace",
        "label": "uint256",
        "numberOfBytes": "32"
      },
      "t_uint32": {
        "encoding": "inplace",
        "label": "uint32",
        "numberOfBytes": "4"
      },
      "t_uint64": {
        "encoding": "inplace",
        "label": "uint64",
        "numberOfBytes": "8"
      },
      "t_uint8": {
        "encoding": "inplace",
        "label": "uint8",
        "numberOfBytes": "1"
      }
    }
  }
}